:100000000C9407010C942F010C942F010C942F01D8
:100010000C942F010C942F010C942F010C942F01A0
:100020000C942F010C942F010C942F010C942F0190
:100030000C942F010C942F010C942F010C942F0180
:100040000C941F040C942F010C942F010C942F017D
:100050000C942F010C942F010C942F010C942F0160
:100060000C942F010C942F0108000000BE9224492B
:10007000123EABAAAA2ABECDCCCC4C3E00000080DA
:10008000BEABAAAAAA3E00000000BF000000803F4D
:100090000000000000084178D3BB4387D1133D190D
:1000A0000E3CC3BD4282AD2B3E68EC8276BED98F3A
:1000B000E1A93E4C80EFFFBE01C4FF7F3F0000007E
:1000C000000000407A10F35A00A0724E1809001088
:1000D000A5D4E80000E87648170000E40B540200BD
:1000E00000CA9A3B000000E1F505000080969800E8
:1000F000000040420F000000A08601000000102711
:1001000000000000E80300000000640000000000A0
:100110000A00000000000100000000002C76D888D2
:10012000DC674F0823DFC1DFAE59E1B1B796E5E3E5
:10013000E453C63AE651997696E8E6C28426EB89FE
:100140008C9B62ED407C6FFCEFBC9C9F40F2BAA59B
:100150006FA5F490055A2AF75C936B6CF9676DC133
:100160001BFCE0E40D47FEF520E6B500D0ED902E37
:100170000300943577050080841E080000204E0A95
:10018000000000C80C333333330F986E12831141D3
:10019000EF8D2114893BE65516CFFEE6DB18D1849E
:1001A0004B381BF77C1D901DA4BBE42420328472C5
:1001B0005E228100C9F124ECA1E53D27000000008A
:1001C000240027002A0000000000250028002B0042
:1001D00004040404040404040202020202020303ED
:1001E00003030303010204081020408001020408F5
:1001F0001020010204081020000000080002010085
:100200000003040700000000000000003F06112466
:100210001FBECFEFD8E0DEBFCDBF21E0A6E3B1E047
:1002200001C01D92A336B207E1F711E0A0E0B1E0F2
:10023000ECE7FAE102C005900D92A633B107D9F7B9
:1002400011E0C7E0D1E004C02197FE010E94440BF9
:10025000C630D107C9F70E9469040C943C0D0C9478
:10026000000090E0FC01E850FE4F2491FC01EC51AD
:10027000FE4F3491FC01E053FE4FE491EE23C9F0B0
:10028000222339F0233001F1A8F4213019F1223072
:1002900029F1F0E0EE0FFF1FEA53FE4FA591B49154
:1002A0008FB7F894EC91611126C030953E233C93B2
:1002B0008FBF08952730A9F02830C9F0243049F7BE
:1002C000809180008F7D03C0809180008F77809324
:1002D0008000DFCF84B58F7784BDDBCF84B58F7D81
:1002E000FBCF8091B0008F778093B000D2CF809108
:1002F000B0008F7DF9CF3E2BDACFCF93DF9390E024
:10030000FC01EC51FE4F249180539E4FFC018491DF
:100310008823D1F090E0880F991FFC01E454FE4F30
:10032000A591B491FC01EA53FE4FC591D49161119E
:100330000EC09FB7F8948C91E22FE0958E238C939A
:100340002881E223E8839FBFDF91CF9108958FB783
:10035000F894EC91E22BEC938FBFF6CF3FB7F89473
:100360008091430190914401A0914501B0914601D3
:1003700026B5A89B05C02F3F19F00196A11DB11D00
:100380003FBFBA2FA92F982F8827BC01CD01620F3C
:10039000711D811D911D42E0660F771F881F991FF7
:1003A0004A95D1F708958F929F92AF92BF92CF92C4
:1003B000DF92EF92FF924B015C010E94AE016B0154
:1003C0007C010E94AE016C197D098E099F09683E6F
:1003D000734081059105A8F321E0821A9108A108D4
:1003E000B10888EEC80E83E0D81EE11CF11C811410
:1003F0009104A104B10429F7FF90EF90DF90CF9012
:10040000BF90AF909F908F900895AF92BF92CF9280
:10041000DF92EF92FF920F931F93CF93DF936C01C4
:100420007B018B01040F151FEB015E01AE18BF08A5
:10043000C017D10759F06991D601ED91FC91019057
:10044000F081E02DC6010995892B79F7C501DF916F
:10045000CF911F910F91FF90EF90DF90CF90BF90C1
:10046000AF900895089590E080E008950F931F9352
:10047000CF93DF93EC0188819981009759F02A810D
:100480003B812617370730F081E0DF91CF911F9134
:100490000F9108958B016F5F7F4F0E946F0C009743
:1004A00059F0998388831B830A832C813D81232BF8
:1004B00059F7FC011082E8CF80E0E7CFEF92FF927E
:1004C0000F931F93CF93DF936115710541F480E083
:1004D000DF91CF911F910F91FF90EF9008954115FB
:1004E0005105B1F07B01EC010C811D81040F151F3A
:1004F000B8010E943602882351F3288139818C810A
:100500009D81B701820F931F0E94350D1D830C83BF
:1005100081E0DECFCF93DF93EC0188819981009752
:1005200011F00E94E60B198218821D821C821B8228
:100530001A82DF91CF910895CF93DF93EC014FE0C2
:1005400050E062E171E00E945E02811103C0CE01C1
:100550000E948A02CE01DF91CF910895EF92FF921F
:100560000F931F93CF93DF93EC017B018A01BA01B4
:100570000E94360281110BC0CE010E948A02CE0178
:10058000DF91CF911F910F91FF90EF9008951D8300
:100590000C83B701888199810E94350DF0CFFC0151
:1005A00080819181009711F00C94E60B0895CF9310
:1005B000DF93EC0160E08E810E94310161E08E8169
:1005C0000E94310160E08E810E9431018BE891E050
:1005D0000197F1F7DF91CF910895CF92DF92EF92DB
:1005E000FF920F931F93CF93DF936C017C0187E001
:1005F000E80EF11CD0E0C0E0062F10E0B8010C2E90
:1006000002C0759567950A94E2F76170F7018191D0
:100610007F010E9431012196C430D10579F7C601CE
:10062000DF91CF911F910F91FF90EF90DF90CF90CE
:100630000C94D702CF92DF92EF92FF920F931F9309
:10064000CF93DF93EC01F62E642F8C810E94310151
:100650008D818F3F19F060E00E9431010F2D10E075
:100660008F8584FF25C06E0187E0C80ED11CF12C58
:10067000E12CB8010E2C02C0759567950A94E2F73B
:100680006170F60181916F010E943101FFEFEF1A55
:10069000FF0A88E0E816F10461F7CE01DF91CF91FF
:1006A0001F910F91FF90EF90DF90CF900C94D702A5
:1006B000B80184E0759567958A95E1F7CE010E94AF
:1006C000ED026F2DCE01DF91CF911F910F91FF9021
:1006D000EF90DF90CF900C94ED0240E0682F87E41C
:1006E00091E00C941A03CF93DF93823029F4909118
:1006F000560198609093560180935A0110925B01C5
:1007000080E480935C0180E180935D0180E58093CB
:100710005E0161E080914B010E947D0180914C015E
:100720008F3F19F061E00E947D0161E080914D01F1
:100730000E947D01C7E4D1E09E01275431408091A1
:10074000560184FD0BC084E090E0219628173907FC
:1007500044F461E08E810E947D01EECF88E090E05C
:10076000F4CF8BE39DE00197F1F760E080914B01BE
:100770000E94310160E080914D010E943101809121
:100780004C018F3F19F060E00E94310180915601C9
:1007900084FD39C063E087E491E00E94ED02CBE480
:1007A000D6E4CE010197F1F763E087E491E00E947F
:1007B000ED022197F1F763E087E491E00E94ED02FA
:1007C00083E592E00197F1F762E087E491E00E940F
:1007D000ED028091560180620E946D0384E0809357
:1007E00057018CE00E946D0381E00E946D038BE352
:1007F0009FE10197F1F782E08093580186E0DF9155
:10080000CF910C946D0380620E946D038BE496E49B
:100810000197F1F78091560180620E946D0383E594
:1008200092E00197F1F78091560180620E946D037A
:10083000D0CF41E00E941A0381E090E008951F921A
:100840000F920FB60F9211242F933F938F939F9384
:10085000AF93BF9380913F0190914001A0914101DE
:10086000B091420130913E0123E0230F2D3758F51E
:100870000196A11DB11D20933E0180933F019093ED
:100880004001A0934101B0934201809143019091B6
:100890004401A0914501B09146010196A11DB11DF1
:1008A0008093430190934401A0934501B093460186
:1008B000BF91AF919F918F913F912F910F900FBE5C
:1008C0000F901F90189526E8230F0296A11DB11DC9
:1008D000D2CFCF93DF93CDB7DEB7A7970FB6F894FB
:1008E000DEBF0FBECDBF789484B5826084BD84B571
:1008F000816084BD85B5826085BD85B5816085BD1B
:1009000080916E00816080936E00109281008091D2
:10091000810082608093810080918100816080935A
:100920008100809180008160809380008091B1007F
:1009300084608093B1008091B00081608093B000AA
:1009400080917A00846080937A0080917A0082603E
:1009500080937A0080917A00816080937A00809100
:100960007A00806880937A001092C10082E00E9431
:100970007303E1E080915A018111E0E0E195F0E03C
:10098000E95BFE4F848980680E946D034DE050E072
:1009900062E271E087E491E00E94050261E08DE08F
:1009A0000E947D0161E082E10E947D0160E083E1BF
:1009B0000E947D0161E082E10E94310168EC70E0FB
:1009C00080E090E00E94D3016E018BE0C80ED11C44
:1009D00085E4382E90E0A92E90E0B92E8E010F5FAD
:1009E0001F4F4801780130927C0080917A0080642A
:1009F00080937A0080917A0086FDFCCF90917800F8
:100A000080917900892798278927F4018193919310
:100A10004F016AE070E080E090E00E94D301C814CA
:100A2000D90409F7412C512C3201F80161917191DF
:100A30008F01072E000C880B990B0E94B4089B01B4
:100A4000AC01C301B2010E94E1092B013C018016F7
:100A5000910659F720E030E040EA50E40E944D0A48
:100A60009B01AC0160E070EC8FE794E40E944D0ABA
:100A700020E030E040E85FE30E94E0099B01AC0128
:100A800060E070EA8CE896E40E944D0A60933601BB
:100A900070933701809338019093390120E034EA54
:100AA00045EB57E40E944D0A0E94C70A20E030EE51
:100AB00046E755E40E944D0A25EF32E14BE55BE342
:100AC0000E94E1099B01AC0160E070E080E89FE3D7
:100AD0000E944D0A23E333E948E853E40E94E00909
:100AE0002B013C0140923A0150923B0160923C0143
:100AF00070923D01E1E080915A018111E0E0E195C1
:100B0000F0E0E95BFE4F848980680E946D031BA2C0
:100B10001AA21DA21CA21FA21EA2870122E044E06D
:100B2000C301B2010E945D06009709F49CC0FC015C
:100B300001900020E9F73197AF01481B590BBC0128
:100B4000CE0182960E94AE021A8219821C821B82FA
:100B50001E821D8242E050E060E371E0C7010E9406
:100B6000AE024EA15FA16AA17BA1C7010E945E02F5
:100B7000811103C0C7010E948A02C7010E949C0222
:100B8000FC01448155816081718187E491E00E947C
:100B90000502C7010E94CF02CE0182960E94CF02B9
:100BA000E0915A01E23008F063C0E150F0E0E95B07
:100BB000FE4F848980680E946D03609136017091B8
:100BC000370180913801909139011BA21AA21DA210
:100BD0001CA21FA21EA2870122E044E00E945D0623
:100BE000009709F447C0FC0101900020E9F7319714
:100BF000AF01481B590BBC01CE0182960E94AE0288
:100C00001A8219821C821B821E821D8242E050E0E1
:100C100063E371E0C7010E94AE024EA15FA16AA129
:100C20007BA1C7010E945E02811103C0C7010E941F
:100C30008A02C7010E949C02FC01448155816081A7
:100C4000718187E491E00E940502C7010E94CF02F2
:100C5000CE0182960E94CF02A114B10409F4BECE47
:100C60000E940000BBCECE0182960E948A026CCF09
:100C7000E1E09CCFCE0182960E948A02C1CFE7E4D8
:100C8000F1E0138212828AE091E09183808388E010
:100C900084838FEF858389E0868384E0878385E082
:100CA000808786E0818787E0828713861486158691
:100CB0001686178681E00C947303EF920F931F93AF
:100CC000CF93DF93E80134E047FD34E1042E000CBC
:100CD000550B57FF03C0519541955109E32E022F43
:100CE000242FAE010E947B06CE01DF91CF911F9190
:100CF0000F91EF900895A9E0B0E0E1E8F6E00C94E0
:100D0000AF096A01F22EB02E102FFBE3AF2EA01612
:100D100008F41BE31F5F012F27E0AE014F5F5F4F19
:100D20000E94DA07BC018981982F9970913009F4EB
:100D30003FC09BE2E1FC04C09E2D9170E0FC3AC0F4
:100D40005E2D5071E82FE87083FF46C084E091115A
:100D500001C083E0EF2DE81B8F1508F0E0E0D6011D
:100D60008E2F20E2552351F1992329F0D6019C932F
:100D7000C60101966C0196012D5F3F4FE2FE24C033
:100D80008EE4D6018C9391E411969C931197129660
:100D90008C93D9018E2F90E281111BC0E20FF32FAB
:100DA000F11D10828EEF9FEF2996ECE00C94CB0999
:100DB0009DE2C6CF90E2C4CF2D9381508111FCCF2C
:100DC000CE0ED11CE0E0D0CF8EE6D6018C9391E61A
:100DD000DBCF9D938150E0CF482F447082FF3DC010
:100DE00084E0911101C083E08F1510F4EF2DE81B12
:100DF000D6018E2F20E2552309F1992329F0D6013F
:100E00009C93C60101966C0196012D5F3F4FE2FE57
:100E10001BC089E4D6018C938EE411968C931197B4
:100E200086E412968C93D9018E2F90E2882309F4E0
:100E3000B5CF9D938150FACF2D9381508111FCCF76
:100E4000CE0ED11CE0E0D9CF89E6D6018C938EE698
:100E500011968C93119786E6E4CF9B0177FF02C031
:100E600030E020E0A1E0B0E0911102C0B0E0A0E0ED
:100E7000F9013196AE0FBF1F8B2C912CBB2009F4CA
:100E800061C05401EFEFAE1ABE0AAA0DBB1DFA16DF
:100E90001B0619F014F04F2D4A1B511188C0E3FCBA
:100EA00059C07601A42FB0E2A1114FC0C40ED11CCD
:100EB000992309F45BC040E0D6011196F6019083B6
:100EC0006D01552309F448C0012F060F9A81582F50
:100ED000507184FF03C0913309F4015010160CF0D7
:100EE00047C0093008F008E0EEE2FE2E5B01A01AD0
:100EF000B10885019194819491082F3F320729F41C
:100F0000D601FC92F60131966F016217730794F1D6
:100F1000021713077CF5DB01A21BB30BAA24A394D1
:100F2000B12CAC0EBD1EAA0DBB1D11968C9121508B
:100F30003109D601119628153905F4F0F6018083A0
:100F40006D01DBCFB12CA12CA0CFF701B1937F01B4
:100F5000A150AACF9111B0CFD601942F50E302C077
:100F60005D9391509111FCCFC40ED11C40E0ACCFE9
:100F700001E0BACF80E3DBCF6217730731F4963319
:100F800088F4953311F4552369F0F6018083FD014F
:100F9000842F90E2811108C0A40FB11D1C9290E033
:100FA00080E002CF81E3F1CF91938150F3CF911193
:100FB00083CF8ACF283008F027E03327DA01990F52
:100FC000311D87FD916000966105710539F432602D
:100FD0002E5F3D9330E32A95E1F708959F3F30F06F
:100FE00080387105610509F03C5F3C5F3D939130AD
:100FF00008F08068911DDF93CF931F930F93FF92AA
:10100000EF92192F987F9695E92F96959695E90F6F
:10101000FF27E45EFE4F99273327EE24FF24A70124
:10102000E70105900894079428F4360FE71EF81E90
:10103000491F511D660F771F881F991F0694A1F73E
:101040000590079428F4E70EF81E491F561FC11D8E
:10105000770F881F991F661F0694A1F705900794C4
:1010600028F4F80E491F561FC71FD11D880F991F5E
:10107000661F771F0694A1F70590079420F4490F87
:10108000561FC71FD81F990F661F771F881F06940A
:10109000A9F784911095177041F0D695C79557958B
:1010A0004795F794E7941A95C1F7E2ECF0E068945D
:1010B0001590159135916591959105907FE2739505
:1010C000E118F10A430B560BC90BD009C0F7E10C2C
:1010D000F11E431F561FC91FD01D7EF4703311F43B
:1010E0008A95E6CFE894015030F0080F0AF4002703
:1010F000021708F4202F2395022F7A3328F079E382
:101100007D932A95E9F710C07D932A9589F6069478
:1011100097956795379517951794E118F10A430B42
:10112000560BC90BD00998F023957E9173957A33AD
:1011300008F070E37C932013B8F77E9170617D9383
:1011400030F0839571E37D9370E32A95E1F71124E4
:10115000EF90FF900F911F91CF91DF91992787FD1D
:1011600090950895E89409C097FB3EF4909580957A
:10117000709561957F4F8F4F9F4F9923A9F0F92F5D
:1011800096E9BB279395F695879577956795B795DB
:10119000F111F8CFFAF4BB0F11F460FF1BC06F5FC1
:1011A0007F4F8F4F9F4F16C0882311F096E911C0D3
:1011B000772321F09EE8872F762F05C0662371F0F4
:1011C00096E8862F70E060E02AF09A95660F771F08
:1011D000881FDAF7880F9695879597F908950E94EA
:1011E000610938F00E94680920F0952311F00C94F1
:1011F00058090C945E0911240C94A3090E948009DB
:1012000070F3959FC1F3950F50E0551F629FF00159
:10121000729FBB27F00DB11D639FAA27F00DB11D72
:10122000AA1F649F6627B00DA11D661F829F2227FB
:10123000B00DA11D621F739FB00DA11D621F839F82
:10124000A00D611D221F749F3327A00D611D231F58
:10125000849F600D211D822F762F6A2F11249F57A6
:1012600050409AF0F1F088234AF0EE0FFF1FBB1FA9
:10127000661F771F881F91505040A9F79E3F510568
:1012800080F00C9458090C94A3095F3FE4F3983E56
:10129000D4F3869577956795B795F795E7959F5F12
:1012A000C1F7FE2B880F911D9695879597F90895A4
:1012B00097F99F6780E870E060E008959FEF80EC09
:1012C000089500240A9416161706180609060895AC
:1012D00000240A9412161306140605060895092E12
:1012E0000394000C11F4882352F0BB0F40F4BF2B81
:1012F00011F460FF04C06F5F7F4F8F4F9F4F0895C1
:1013000057FD9058440F551F59F05F3F71F04795B6
:10131000880F97FB991F61F09F3F79F0879508959B
:10132000121613061406551FF2CF4695F1DF08C0BA
:10133000161617061806991FF1CF869571056105D7
:1013400008940895E894BB2766277727CB0197F97F
:1013500008952F923F924F925F926F927F928F9259
:101360009F92AF92BF92CF92DF92EF92FF920F9334
:101370001F93CF93DF93CDB7DEB7CA1BDB0B0FB63E
:10138000F894DEBF0FBECDBF09942A8839884888FB
:101390005F846E847D848C849B84AA84B984C88491
:1013A000DF80EE80FD800C811B81AA81B981CE0F88
:1013B000D11D0FB6F894DEBF0FBECDBFED0108956D
:1013C0005058BB27AA270E94F8090C946F090E9465
:1013D000610938F00E94680920F039F49F3F19F440
:1013E00026F40C945E090EF4E095E7FB0C94580982
:1013F000E92F0E94800958F3BA1762077307840720
:10140000950720F079F4A6F50C94A2090EF4E09566
:101410000B2EBA2FA02D0B01B90190010C01CA01AE
:10142000A0011124FF27591B99F0593F50F4503E59
:1014300068F11A16F040A22F232F342F4427585F4B
:10144000F3CF469537952795A795F0405395C9F763
:101450007EF41F16BA0B620B730B840BBAF091501B
:10146000A1F0FF0FBB1F661F771F881FC2F70EC0BA
:10147000BA0F621F731F841F48F48795779567958D
:10148000B795F7959E3F08F0B0CF9395880F08F079
:101490009927EE0F9795879508950E94610A0C94FD
:1014A0006F090E94680958F00E94610940F029F410
:1014B0005F3F29F00C94580951110C94A3090C9426
:1014C0005E090E94800968F39923B1F3552391F3D3
:1014D000951B550BBB27AA2762177307840738F0A3
:1014E0009F5F5F4F220F331F441FAA1FA9F335D000
:1014F0000E2E3AF0E0E832D091505040E695001CB4
:10150000CAF72BD0FE2F29D0660F771F881FBB1F6D
:10151000261737074807AB07B0E809F0BB0B802D4B
:10152000BF01FF2793585F4F3AF09E3F510578F077
:101530000C9458090C94A3095F3FE4F3983ED4F34C
:10154000869577956795B795F7959F5FC9F7880F4B
:10155000911D9695879597F90895E1E0660F771F9D
:10156000881FBB1F621773078407BA0720F0621B2E
:10157000730B840BBA0BEE1F88F7E095089516F0F5
:101580000C940F0B0C945E0968940C9458090E94FB
:101590008809A8F39923C1F3AEF3DF93CF931F9388
:1015A0000F93FF92C92FDD2788232AF02197660F1A
:1015B000771F881FDAF720E030E040E85FEB9FE319
:1015C000883920F0803E38F021968F770E94E1091B
:1015D000E8E6F0E004C00E94E109E5E9F0E00E94DD
:1015E0001D0B8B01BE01EC01FB2E6F577109759528
:1015F000771F880B990B0E94B40828E132E741E37A
:101600005FE30E94FE08AF2D9801AE01FF900F919D
:101610001F91CF91DF910E94F8090C946F099F3FB1
:1016200031F0915020F4879577956795B795880F9D
:10163000911D9695879597F90895DF93CF931F9302
:101640000F93FF92EF92DF927B018C01689406C0AA
:10165000DA2EEF010E94FE08FE01E894A591259183
:10166000359145915591A6F3EF010E94F809FE01CD
:101670009701A801DA9469F7DF90EF90FF900F913E
:101680001F91CF91DF910895EE0FFF1F0590F49108
:10169000E02D09940F931F93CF93DF938230910530
:1016A00010F482E090E0E0916101F091620130E09D
:1016B00020E0B0E0A0E0309799F42115310509F45D
:1016C0004AC0281B390B24303105D8F58A819B810B
:1016D0006115710589F1FB0193838283FE0111C0BD
:1016E000408151810281138148175907E0F0481762
:1016F000590799F4109761F012960C93129713966C
:101700001C933296CF01DF91CF911F910F910895D5
:101710000093610110936201F4CF2115310551F05E
:101720004217530738F0A901DB019A01BD01DF011F
:10173000F801C1CFEF01F9CF90936201809361016D
:10174000CDCFFE01E20FF31F819391932250310917
:1017500039832883D7CF20915F0130916001232BFB
:1017600041F42091020130910301309360012093F4
:101770005F0120910001309101012115310541F4F3
:101780002DB73EB74091040150910501241B350B44
:10179000E0915F01F0916001E217F307A0F42E1BC6
:1017A0003F0B2817390778F0AC014E5F5F4F2417C5
:1017B000350748F04E0F5F1F5093600140935F0163
:1017C000819391939FCFF0E0E0E09CCFCF93DF93A4
:1017D0000097E9F0FC01329713821282A091610117
:1017E000B0916201ED0130E020E01097A1F420817A
:1017F0003181820F931F20915F0130916001281782
:10180000390709F061C0F0936001E0935F01DF9157
:10181000CF910895EA01CE17DF07E8F54A815B8191
:101820009E0141155105B1F7E901FB83EA83499116
:101830005991C40FD51FEC17FD0761F48081918188
:101840000296840F951FE901998388838281938191
:101850009B838A83F0E0E0E012968D919C91139730
:101860000097B9F52D913C911197CD010296820F09
:10187000931F20915F01309160012817390739F6D5
:10188000309751F51092620110926101B09360019E
:10189000A0935F01BCCFD383C28340815181840F69
:1018A000951FC817D90761F44E5F5F4F88819981F2
:1018B000480F591F518340838A819B819383828380
:1018C0002115310509F0B0CFF0936201E093610179
:1018D0009ECFFD01DC01C0CF13821282D7CFB0E0D2
:1018E000A0E0E5E7FCE00C94AB098C01009751F413
:1018F000CB010E944A0B8C01C801CDB7DEB7E0E1F5
:101900000C94C709FC01E60FF71F9C012250310916
:10191000E217F30708F49DC0D901CD91DC9111972E
:10192000C617D70798F0C530D10530F3CE0104971C
:101930008617970708F3C61BD70B2297C193D1933D
:101940006D937C93CF010E94E60BD6CF5B01AC1A5E
:10195000BD0A4C018C0E9D1EA0916101B0916201E7
:10196000512C412CF12CE12C109731F580915F0125
:10197000909160018815990509F05CC046165706DC
:1019800008F058C08091000190910101009741F446
:101990008DB79EB74091040150910501841B950BB2
:1019A000E817F90708F055C0F0936001E0935F0174
:1019B000F90171836083A0CF8D919C91119712964C
:1019C0006C90129713967C901397A815B90559F54A
:1019D0006C0142E0C40ED11CCA14DB0420F1AC013E
:1019E0004A195B09DA011296159780F062827382B8
:1019F00051834083D9016D937C93E114F10471F01C
:101A0000D7011396FC93EE93129776CF22968C0F04
:101A10009D1FF90191838083F301EFCFF093620161
:101A2000E093610169CF4816590608F42C017D0145
:101A3000D3019ACFCB010E944A0B7C01009749F059
:101A4000AE01B8010E942C0DC8010E94E60B87016F
:101A500053CF10E000E050CFFB01DC0102C0019049
:101A60000D9241505040D8F70895FB01DC010190E0
:0C1A70000D920020E1F70895F894FFCFDC
:101A7C00000063018000000000001904050233021D
:101A8C003202202020202020202020202020202056
:101A9C0020007368616464792E6F72672E75610023
:061AAC00543A00523A001A
:00000001FF
